{
  "contractName": "XYZTokenSale",
  "abi": [
    {
      "constant": true,
      "inputs": [],
      "name": "tokensSold",
      "outputs": [
        {
          "name": "",
          "type": "uint256"
        }
      ],
      "payable": false,
      "stateMutability": "view",
      "type": "function"
    },
    {
      "constant": true,
      "inputs": [],
      "name": "tokenContract",
      "outputs": [
        {
          "name": "",
          "type": "address"
        }
      ],
      "payable": false,
      "stateMutability": "view",
      "type": "function"
    },
    {
      "constant": true,
      "inputs": [],
      "name": "tokenPrice",
      "outputs": [
        {
          "name": "",
          "type": "uint256"
        }
      ],
      "payable": false,
      "stateMutability": "view",
      "type": "function"
    },
    {
      "inputs": [
        {
          "name": "_tokenContract",
          "type": "address"
        },
        {
          "name": "_tokenPrice",
          "type": "uint256"
        }
      ],
      "payable": false,
      "stateMutability": "nonpayable",
      "type": "constructor"
    },
    {
      "anonymous": false,
      "inputs": [
        {
          "indexed": false,
          "name": "_buyer",
          "type": "address"
        },
        {
          "indexed": false,
          "name": "_amount",
          "type": "uint256"
        }
      ],
      "name": "Sell",
      "type": "event"
    },
    {
      "constant": false,
      "inputs": [
        {
          "name": "_numberOfTokens",
          "type": "uint256"
        }
      ],
      "name": "buyTokens",
      "outputs": [],
      "payable": true,
      "stateMutability": "payable",
      "type": "function"
    }
  ],
  "bytecode": "0x608060405234801561001057600080fd5b506040516040806103ec8339810180604052810190808051906020019092919080519060200190929190505050336000806101000a81548173ffffffffffffffffffffffffffffffffffffffff021916908373ffffffffffffffffffffffffffffffffffffffff16021790555081600160006101000a81548173ffffffffffffffffffffffffffffffffffffffff021916908373ffffffffffffffffffffffffffffffffffffffff160217905550806002819055505050610316806100d66000396000f300608060405260043610610062576000357c0100000000000000000000000000000000000000000000000000000000900463ffffffff1680633610724e14610067578063518ab2a81461008757806355a373d6146100b25780637ff9b59614610109575b600080fd5b61008560048036038101908080359060200190929190505050610134565b005b34801561009357600080fd5b5061009c6102b8565b6040518082815260200191505060405180910390f35b3480156100be57600080fd5b506100c76102be565b604051808273ffffffffffffffffffffffffffffffffffffffff1673ffffffffffffffffffffffffffffffffffffffff16815260200191505060405180910390f35b34801561011557600080fd5b5061011e6102e4565b6040518082815260200191505060405180910390f35b80600160009054906101000a900473ffffffffffffffffffffffffffffffffffffffff1673ffffffffffffffffffffffffffffffffffffffff166370a08231306040518263ffffffff167c0100000000000000000000000000000000000000000000000000000000028152600401808273ffffffffffffffffffffffffffffffffffffffff1673ffffffffffffffffffffffffffffffffffffffff168152602001915050602060405180830381600087803b1580156101f257600080fd5b505af1158015610206573d6000803e3d6000fd5b505050506040513d602081101561021c57600080fd5b81019080805190602001909291905050501015151561023a57600080fd5b806003600082825401925050819055507f5e5e995ce3133561afceaa51a9a154d5db228cd7525d34df5185582c18d3df093382604051808373ffffffffffffffffffffffffffffffffffffffff1673ffffffffffffffffffffffffffffffffffffffff1681526020018281526020019250505060405180910390a150565b60035481565b600160009054906101000a900473ffffffffffffffffffffffffffffffffffffffff1681565b600254815600a165627a7a72305820ada6856b0a474ba152fe5898636ee38649347b8c7837342fc27fc12e51e1953c0029",
  "source": "pragma solidity ^0.4.2;\n\nimport \"./XYZToken.sol\";\n\ncontract XYZTokenSale {\n\taddress admin;\n\tXYZToken public tokenContract;\n\tuint256 public tokenPrice; \n\tuint256 public tokensSold;\n\n\tevent Sell(address _buyer, uint256 _amount);\n\n\tfunction XYZTokenSale(XYZToken _tokenContract, uint256 _tokenPrice) public {\n\t\t// Assign an admin\n\t\tadmin = msg.sender;\n\n\t\t// Token contract \n\t\ttokenContract = _tokenContract;\n\n\t\t// Token Price \n\t\ttokenPrice = _tokenPrice;\n\t}\n\n\t// multiply\n\tfunction multiply(uint x, uint y) internal pure returns (uint z) {\n\t\trequire(y == 0 || (z = x * y) / y == x);\n\t}\n\n\tfunction buyTokens(uint256 _numberOfTokens) public payable {\n\t\t// Require that value is equal to the numberOfTokens--prevent someone from underpaying or overpaying\n\t\t// require(msg.value == multiply(_numberOfTokens, tokenPrice)); \n\t\t// Require that the contract has enough tokens \n\t\trequire(tokenContract.balanceOf(this) >= _numberOfTokens);\n\t\t// Require that a transfer is successful \n\n\t\t// Keep track of tokensSold\n\t\ttokensSold += _numberOfTokens;\n\n\t\t// Trigger Sell Event \n\t\tSell(msg.sender, _numberOfTokens);\n\t}\n\n}",
  "sourcePath": "/Users/liuziyi/Documents/tutorials/dapps/truffle/token-sale/contracts/XYZTokenSale.sol",
  "compiler": {
    "name": "solc",
    "version": "0.4.23+commit.124ca40d.Emscripten.clang"
  },
  "schemaVersion": "2.0.0",
  "updatedAt": "2018-05-19T04:40:46.717Z"
}